:100000000C308A00592C0000FF00030E8301A10070
:100010000A08A0008A010408A2007708A300780853
:10002000A4007908A5007A08A60003170D08031399
:10003000A70003170F080313A80003170C080313E6
:10004000A90003170E080313AA00831383128B1E43
:100050002B280B194C28220884002308F7002408B9
:10006000F8002508F9002608FA00270803178D0074
:100070000313280803178F000313290803178C00A4
:1000800003132A0803178E00031320088A00210E89
:100090008300FF0E7F0E09008A110A12DA280A1067
:1000A0008A100A11820737343834393441343434F1
:1000B00035343634423431343234333443344334D7
:1000C00030343D344434831630080319D428B80042
:1000D00034080319D428B807031875287F30B802EC
:1000E000031CD4280319D42879288130B8070318B1
:1000F000D4283808F700F801F901FA013108BC00EA
:10010000BC173208BB003308BA001830B800B90178
:100110003A1CA2283708FA07031C9428F90A031D81
:100120009428F80A0319B9173608F907031C9B2805
:10013000F80A0319B9173508B200B2173208F807E0
:100140000318B917B90DF80CF90CFA0CBC0CBB0C60
:10015000BA0C0310B80B87280130F7070318D4280E
:10016000F81BB928BC0DFA0DF90DF80DF7030319AA
:10017000D428BC1FCA28FA0A031DCA28F90A031D7D
:10018000CA28F80A031DCA28F80CF90CFA0CF70A59
:100190000319D4283108B9003508B906B91FD22887
:1001A000F817D828F813D828F701F801F901FA014F
:1001B000831208003C3081008316AA012A08073CFC
:1001C000031C4A2A2A08AB002B0DF700F70DF70D88
:1001D000F830F70583121F08C73977049F005230A3
:1001E000F700F70BF128F4280000031083162B0DFD
:1001F000323E8400831383121F151F19FD281E0829
:10020000FA0083161E088000840A7A0880002B0DED
:10021000F700F70DFC30F7057708423EF800FA01C9
:100220000318FA0A7808AC007A08AD0003102B0D09
:10023000323E84008313840A0008AF008403000860
:10024000AE002F08B1002E08B0008E30F700310844
:10025000F8003008F900FA01F808031D3929790877
:10026000F800F9010830F702F808031D3929F701F1
:1002700041290310F81B4029F90DF80DF70339291E
:10028000F8137A08B3007908B2007808B10077084B
:10029000B000B701B6012030B5008130B400831240
:1002A00063207A088316B1007908B0007808AF009F
:1002B0007708AE003108B5003008B4002F08B3004D
:1002C0002E08B200B901B801B7018930B600320872
:1002D00003192C2ABE00360803192C2ABE02031C5F
:1002E00076297F30BE0703182C2A7C298130BE0274
:1002F000031C2C2A03192C2A3E08F700F801F901E7
:10030000FA01BD013308BC00BC173408BB00350836
:10031000BA001930BE003908BA0203189F2901300B
:10032000BB0203189F29BC0203189F29BD020318B2
:100330009F29BD0ABC0ABB0A3908BA07D129380867
:10034000BB020318BA290130BC020318BA29BD0246
:100350000318BA29BD0ABC0A3808BB073908BA070E
:10036000031CD129BB0A031DD129BC0A031DD129B5
:10037000BD0AD12937088038BC020318D0290130C2
:10038000BD020318D029BD0A37088038BC073808D9
:10039000BB07031CAE29BC0A031DAE29BD0AAE294A
:1003A0007A14BE0BD429DF290310BA0DBB0DBC0D86
:1003B000BD0D0310FA0DF90DF80DBF0D8B293F1C73
:1003C000E7290310F80CF90CFA0CBF0CEA29F70323
:1003D00003192C2ABF1B132A0310BA0DBB0DBC0D29
:1003E000BD0D3908BA020318FF290130BB020318FA
:1003F000FF29BC020318FF29BD02031C222A38086A
:10040000BB0203180A2A0130BC0203180A2ABD02E3
:10041000031C222A37088038BC020318132A013033
:10042000BD02031C222AFA0A031D222AF90A031D0F
:10043000222AF80A031D222AF70A03192C2AF80C8B
:10044000F90CFA0C3308BE003708BE06BE1F2A2A74
:10045000F817302AF813302AF701F801F901FA01E8
:100460007A08B1007908B0007808AF007708AE00CC
:100470002C08840083132D1883172E088000840A0B
:100480002F088000840A30088000840A3108800028
:10049000AA0ADE2883120B118A110A122B280C10CB
:1004A00020102021E9326E3B653769326F1020053C
:1004B000453669356110F33AA037F031E9376E1DE2
:1004C00020008C202E10CC326539202B6F36F43072
:1004D000EA320A212E10D6327210F630EC37F232A0
:1004E00073008C212E104937E6372032651075379E
:1004F0000A10F0346E10E539F032E334E634E337B5
:1005000000000C102010202B6F36F430EA32A012BD
:1005100064002010201025173533202B20000C2BD1
:10052000B11E2533563E5619BD12662B0001D61951
:10053000BD12662B7C2BB41E253356000C2BB51E2A
:100540002533563E561BBD12662B0001D61BBD122D
:10055000662B7C2BB81E253356008C24EE33F232EA
:10056000F332A0326C10CE372E05E330EE306C1033
:10057000411000010C2BB11E25335600E234F43932
:10058000BD124C3256000C2BB21E25335600E234FD
:10059000F439BD124C3256000C2BB31E25335600D5
:1005A000E234F439BD124C3256000C2BB41E253304
:1005B0005600E234F439BD124C3256000C2BB51EF5
:1005C00025335600E234F439BD124C3256000C2B60
:1005D000B61E25335600E234F439BD124C325600B3
:1005E0000C2BB71E25335600E234F439BD124C32C1
:1005F00056000C2BB81E25335600E234F439BD12D8
:100600004C3256008C24EE33F232F332A027F03114
:10061000E9376E103A007B30840083130008031919
:100620001E2B0630F800F701F70B142BF80B132BD9
:100630007B30F700F70B1A2B800B112B0800831669
:100640002318262B83120812282B831683120816D0
:1006500083160812A318302B83128812322B8316AC
:10066000831288168316881223193A2B83120813D3
:100670003C2B83168312081783160813A319442BE7
:1006800083128813462B83168312881783168813C8
:10069000000083128815831688110230F700F70BCB
:1006A0004F2B522B0000831288118316881183125E
:1006B00008008316A401081600308312081A0130BE
:1006C0008316A404881600308312881A0130F700BC
:1006D0000310F70D77088316A4040817003083125F
:1006E000081B0130F700F70DF70DFC30F705770810
:1006F0008316A404881700308312881B0130F7008A
:10070000F70DF70DF70DF830F70577088316A404F9
:100710002408F80083120800831688118810081135
:1007200083128810831688100816881608178817F1
:10073000831208158316081100008312881583168A
:10074000881100008312592378088316A3008312AE
:10075000881183168811000083128815831688116A
:10076000B12BB22B00008312592378088316A20004
:1007700083128811831688110812881208138813AF
:10078000230EF700F030F70577082204F800780808
:10079000A200A21B942BA008031DD22B8312881049
:1007A000D42B8316831288148316881000008312BA
:1007B000081183160811000083128811831688110E
:1007C000210EA2000F30A2052208A30083121F23CE
:1007D000831621080F39A200A30083121F230800EB
:1007E0002830E5000C30E6000130E7000630E80074
:1007F000881183168811831288108316881083123B
:10080000081183160811081288120813881388111A
:10081000881008110F30FB0083120B230130E40015
:100820006408033C031C1E2C03308316A3008312B0
:100830001F230530FB000B23E40A102C0230831623
:10084000A30083121F230530FB000B23E40164087F
:10085000033C031C3B2C65306407840083130008B1
:10086000E9008316A001831269088316A100831290
:100870008C23E40A272C83168113C03083128B0447
:100880008B1683161F109F101F119F111F138312A9
:100890001F179F1783169F1783121F1483160108B3
:1008A000C039073881003C30831281008A150A1252
:1008B0006C2C7C0B5C2C5F2C4030FD00602CFD010F
:1008C00001307B02FD077D088038FE008316A00101
:1008D0007E08A10083128C2308007608073A0319CA
:1008E0007B2C0B3A0319802C063A03198A2C023A06
:1008F0000319902C972C0130FB00FC0059249E2CEE
:100900008316A0010130A10083128C230230FB006A
:100910000B239E2C0130FB000230FC0059249E2C3E
:100920008316A0011030A10083128C239E2C01306D
:100930008316A0007608A10083128C2308000B0800
:10094000E6008B13831603178C170C1400000000AD
:1009500083120313E61B8B1703170C087F39031947
:10096000F32C0313E60003170D080313E700031726
:100970000F080313E8006608F6006D2467080317E4
:100980008D000313680803178F0003130B08E90099
:100990008B13831603178C170C14000000008312AE
:1009A0000313E91B8B1703170C0D0E0D7F39031969
:1009B000F32C0313E60003170D080313E7000317D6
:1009C0000F080313E8006608F6006D246708031794
:1009D0008D000313680803178F008D0A03198F0A0F
:1009E00003139F2C0317031308004F3003178D00C8
:1009F00002308F0003139F240430E400AF30FB006B
:100A00000B23E40BFE2C613003178D0002308F00A6
:100A100003139F240430E400AF30FB000B23E40BEE
:100A20000C2D713003178D0002308F0003139F24AB
:100A30000430E400AF30FB000B23E40B1A2D8A15C1
:100A40000A126F2CE601AC0A2C08013C0318822D17
:100A50002F08FC3E0318452D043E892DEF308316E8
:100A6000860083128600452DDF30831686008312B0
:100A70008600452DBF308316860083128600452DE3
:100A80007F3083168600831286002D1C512D0608A8
:100A90000F390F3C031D502D2D102E08E600AE011E
:100AA000812D06080F390F3C03197C2D06080139EA
:100AB000031D5C2DE701702D06080239031D632D0F
:100AC0000130E700702D06080439031D6A2D02303D
:100AD000E700702D06080839031D702D0330E7006C
:100AE000670DF700F70DFC30F70577082F074F204B
:100AF000F800AE002D14812DAF0A2F08043C031915
:100B0000AF01AC01FF308316860083126608F8003F
:100B100008000A148A100A1582072E2D342D3A2D4A
:100B2000402D0B08EA008B13831603178C170C1447
:100B30000000000083120313EA1B8B170318C82D53
:100B400003170C087F390313EA0003170D0803137A
:100B5000EB0003170F080313EC006A08F6006D247E
:100B60006B0803178D0003136C0803178F00031322
:100B70000B08ED008B13831603178C170C14000061
:100B8000000083120313ED1B8B17E90BC82DE72D13
:100B900003170C0D0E0D7F390313EA0003170D0820
:100BA0000313EB0003170F080313EC006A08F600A9
:100BB0006D246B0803178D0003136C0803178F0057
:100BC0008D0A03198F0A03100313E90B912D0800F6
:100BD0006D08F8016C020318F02D6C08F700FC2D6D
:100BE000F7010830EE00EC0DF70D6D0877020318E1
:100BF000F700F80DEE0BF32D08008318022EA43039
:100C000084008313F701F801F901FA018316A401A6
:100C1000A501A601A7012308220421042004031929
:100C2000412E2030A8000310FB0DFC0DFD0DFE0D24
:100C3000A40DA50DA60DA70D23082702031D2A2E1E
:100C400022082602031D2A2E21082502031D2A2E12
:100C500020082402031C3B2E2008A4022108031CA8
:100C6000210FA5022208031C220FA6022308031C41
:100C7000230FA7020314F70DF80DF90DFA0DA80BB9
:100C8000132E24088000840A25088000840A260880
:100C90008000840A27088000831208000408EE0000
:100CA0006D08F00003197B2EAB018B1BAB178B1368
:100CB0006C088316B30083126B088316B20083128C
:100CC0006A088316B100831269088316B000B70161
:100CD000B6012030B5008230B40083126320AB1B14
:100CE0008B177A08EC007908EB007808EA0077089F
:100CF000E900F00B542E6C08FE006B08FD006A083A
:100D0000FC006908FB007B08B63CFB00FA017C088C
:100D1000F600FC170310FC0CFD0CFE0CFA0CF90C91
:100D2000F80CF70CFB0B8A2EF61FA12EF709F80919
:100D3000F909FA09F70A0319F80A0319F90A031954
:100D4000FA0A7A08EC007908EB007808EA007708DC
:100D5000E900EC1FB82EEE03EE16E909EA09EB09EB
:100D6000EC09E90A0319EA0A0319EB0A0319EC0A68
:100D70003B30F5009A30F400CA30F300F2010A303B
:100D8000F0006D080319EE0A8314693084008313A0
:100D90006C08FE006B08FD006A08FC006908FB0097
:100DA00075088316A3007408A2007308A1007208D6
:100DB000A0008312FD257808F708031DF22E6D0AA6
:100DC00070020319F22E6E080319F42E0F39700207
:100DD0000319EC2E0318242FEE1B242F6E1BF42E68
:100DE0002030202F2030EE05EE1E022FEE126D086F
:100DF000031DEE037708EE002D30F6006D246E081B
:100E0000F700EE016D087002031D102F7708EE0049
:100E10002E30F6006D246E08F7002030EE0500300D
:100E20003030EE1E202FEE126D08031DEE03770802
:100E3000EE002D30F6006D246E08F700EE01303024
:100E4000F7077708F6006D2483107508FE00740814
:100E5000FD007308FC007208FB008316A301A201C9
:100E6000A1010A30A0008312FD257A08F500790857
:100E7000F4007808F3007708F200F00BC42E0800A5
:100E8000E4016408073C031CF22F0130FB00FC0066
:100E9000592401306407E500813003178D000230CA
:100EA0008F0003100D300313E90091256508E6005B
:100EB0001830E7002030671E3030E8006608F70081
:100EC000E61F6A2FF709F70A7708E6002D30E800D9
:100ED000E71767146608EC006430ED00E825770832
:100EE000E60030307807E9006608EC000A30ED00D3
:100EF000E82530307707EB0030307807EA006808E3
:100F0000F700303069020319892FE714E71B6715D2
:100F10009D2F6808E9002030E80030306A0203198C
:100F2000952F6714E71BE7149D2F031D6714031DFE
:100F30009D2F6908EA002030E9006719A42FE718FF
:100F4000A72F6718AA2FAD2F6808F6006D2469082F
:100F5000F6006D246A08F6006D246B08F6006D2417
:100F60000130FB000230FC005924640DF700F70D3E
:100F7000FC30F7057708423E840083130008E50043
:100F8000840A0008E600840A0008E700840A0008D2
:100F9000E800893003178D0002308F000310043001
:100FA0000313E9009125893084006808EC00670884
:100FB000EB006608EA006508E9000530ED004E2602
:100FC0002030F6006D245630F6006D242030F600F7
:100FD0006D240830E500FA30FB000B23E50BEB2F06
:0A0FE000E40A412F8A150A12A52C1D
:101000000130FB00FC008A1159248A158F30031728
:101010008D0002308F00031004300313E9008A11A1
:1010200091258A15893084004508EC004408EB00BE
:101030004308EA004208E9000230ED008A114E261A
:101040008A15923003178D0002308F00031005308F
:101050000313E9008A1191258A1589308400490813
:10106000EC004808EB004708EA004608E9000230B7
:10107000ED008A114E268A155630F6008A116D242D
:101080008A150130FB000230FC008A1159248A15B0
:101090005630F6008A116D248A153330F6008A1115
:1010A0006D248A153D30F6008A116D248A15893029
:1010B00084004D08EC004C08EB004B08EA004A089D
:1010C000E9000230ED008A114E268A159930031787
:1010D0008D0002308F00031405300313E9008A11DC
:1010E00091258A15893084005108EC005008EB00E6
:1010F0004F08EA004E08E9000230ED008A114E2642
:101100008A155630F6008A116D248A150A30E400DB
:101110008230FB008A110B238A15E40B88280130EA
:10112000FB00FC008A1159248A159E3003178D009C
:1011300002308F00031004300313E9008A11912557
:101140008A15893084005508EC005408EB005308D8
:10115000EA005208E9000230ED008A114E268A1595
:10116000A13003178D0002308F00031005300313E8
:10117000E9008A1191258A15893084005908EC000C
:101180005808EB005708EA005608E9000230ED0065
:101190008A114E268A155630F6008A116D248A155A
:1011A0000130FB000230FC008A1159248A155630A8
:1011B000F6008A116D248A153730F6008A116D24E5
:1011C0008A153D30F6008A116D248A158930840015
:1011D0005D08EC005C08EB005B08EA005A08E900D7
:1011E0000230ED008A114E268A15A83003178D00B3
:1011F00002308F00031405300313E9008A11912592
:101200008A15893084006108EC006008EB005F08F3
:10121000EA005E08E9000230ED008A114E268A15C8
:101220005630F6008A116D248A150A30E4008230A7
:10123000FB008A110B238A15E40B17298A150A1261
:10124000A52CEE010408ED006E10831B6E14E71F41
:101250003129ED176D1EED0AE609E709E60A0319C3
:10126000E70A670EF038E900E907E23EEA00323E9D
:10127000EC0067080F39EA07EA07EC07E93EEB00E4
:10128000EB07EB07660E0F39EB07EC07EB0DEC0DE8
:10129000EC09EC0D66080F39EC07E90D0730E800A2
:1012A0000A30EC07EB03031C5129EB07EA03031C8C
:1012B0005529EA07E903031C5929E907E803031C38
:1012C0005D2968308400831307306D056D13840336
:1012D0006D05031D72296D1A840A6D1A722920305A
:1012E000F7008F2984076C30040203196D1700087A
:1012F000F700031D83296D1B83296D1A9F29ED19A2
:10130000832920308E29ED1F8B292D30F70084038F
:101310006D13ED138F29ED156D123030F707E701CE
:101320000408E6006710831B67147708F6008A112B
:101330006D248A1566088400831367188317840A4E
:101340006D1F732908000130E400E4080319562CCE
:10135000AD3003178D0002308F008A1103139F24D4
:101360008A158A1122258A157808E5001430FB00B9
:101370008A110B238A156508313A0319D529033AD6
:101380000319252A013A0319752A073A0319C52AB0
:10139000013A0319152B033A0319652B013A031976
:1013A000B52B0F3A0319052C552C0130FB00FC001E
:1013B0008A1159248A15BA3003178D0002308F0024
:1013C000031004300313E9008A1191258A1589302E
:1013D00084004508EC004408EB004308EA0042089A
:1013E000E9000230ED008A114E268A155630F600CB
:1013F0008A116D248A150130FB000230FC008A112D
:1014000059248A15BE3003178D0002308F00031057
:1014100005300313E9008A1191258A1510308400E4
:101420003308E7003208E60021215630F6008A1121
:101430006D248A150830E600FA30FB008A110B2370
:101440008A15E60B1C2AE401552C0130FB00FC0038
:101450008A1159248A15C33003178D0002308F007A
:10146000031004300313E9008A1191258A1589308D
:1014700084004908EC004808EB004708EA004608E9
:10148000E9000230ED008A114E268A155630F6002A
:101490008A116D248A150130FB000230FC008A118C
:1014A00059248A15C73003178D0002308F000310AE
:1014B00005300313E9008A1191258A151030840044
:1014C0003508E7003408E60021215630F6008A117D
:1014D0006D248A150830E600FA30FB008A110B23D0
:1014E0008A15E60B6C2AE401552C0130FB00FC0048
:1014F0008A1159248A15CC3003178D0002308F00D1
:10150000031004300313E9008A1191258A158930EC
:1015100084004D08EC004C08EB004B08EA004A0838
:10152000E9000230ED008A114E268A155630F60089
:101530008A116D248A150130FB000230FC008A11EB
:1015400059248A15D03003178D0002308F00031004
:1015500005300313E9008A1191258A1510308400A3
:101560003708E7003608E60021215630F6008A11D8
:101570006D248A150830E600FA30FB008A110B232F
:101580008A15E60BBC2AE401552C0130FB00FC0057
:101590008A1159248A15D53003178D0002308F0027
:1015A000031004300313E9008A1191258A1589304C
:1015B00084005108EC005008EB004F08EA004E0888
:1015C000E9000230ED008A114E268A155630F600E9
:1015D0008A116D248A150130FB000230FC008A114B
:1015E00059248A15D93003178D0002308F0003105B
:1015F00005300313E9008A1191258A151030840003
:101600003908E7003808E60021215630F6008A1133
:101610006D248A150830E600FA30FB008A110B238E
:101620008A15E60B0C2BE401552C0130FB00FC0065
:101630008A1159248A15DE3003178D0002308F007D
:10164000031004300313E9008A1191258A158930AB
:1016500084005508EC005408EB005308EA005208D7
:10166000E9000230ED008A114E268A155630F60048
:101670008A116D248A150130FB000230FC008A11AA
:1016800059248A15E23003178D0002308F000310B1
:1016900005300313E9008A1191258A151030840062
:1016A0003B08E7003A08E60021215630F6008A118F
:1016B0006D248A150830E600FA30FB008A110B23EE
:1016C0008A15E60B5C2BE401552C0130FB00FC0075
:1016D0008A1159248A15E73003178D0002308F00D4
:1016E000031004300313E9008A1191258A1589300B
:1016F00084005908EC005808EB005708EA00560827
:10170000E9000230ED008A114E268A155630F600A7
:101710008A116D248A150130FB000230FC008A1109
:1017200059248A15EB3003178D0002308F00031007
:1017300005300313E9008A1191258A1510308400C1
:101740003D08E7003C08E60021215630F6008A11EA
:101750006D248A150830E600FA30FB008A110B234D
:101760008A15E60BAC2BE401552C0130FB00FC0084
:101770008A1159248A15F03003178D0002308F002A
:10178000031004300313E9008A1191258A1589306A
:1017900084005D08EC005C08EB005B08EA005A0876
:1017A000E9000230ED008A114E268A155630F60007
:1017B0008A116D248A150130FB000230FC008A1169
:1017C00059248A15F43003178D0002308F0003105E
:1017D00005300313E9008A1191258A151030840021
:1017E0003F08E7003E08E60021215630F6008A1146
:1017F0006D248A150830E600FA30FB008A110B23AD
:101800008A15E60BFC2BE401552C0130FB00FC0093
:101810008A1159248A15F93003178D0002308F0080
:10182000031004300313E9008A1191258A158930C9
:1018300084006108EC006008EB005F08EA005E08C5
:10184000E9000230ED008A114E268A155630F60066
:101850008A116D248A150130FB000230FC008A11C8
:1018600059248A15FD3003178D0002308F000310B4
:1018700005300313E9008A1191258A151030840080
:101880004108E7004008E60021215630F6008A11A1
:101890006D248A150830E600FA30FB008A110B230C
:1018A0008A15E60B4C2CE401552CA5298A150A1241
:1018B000A52C03081F398300B00183161F149F1441
:1018C0001F159F1107309C0083138312AC012D104C
:1018D000AE01AF018A11F02B8A158A11F52C8A15F9
:1018E000E2016208FF3A0319A72CE3016308633C95
:1018F000031CA52C023003178D0003308F008A11C2
:1019000003139F248A150A30FB008A110B238A15C2
:101910008A1122258A157808B1003108413C031D3F
:10192000962C8A11402F8A15A52CA32C3108423CF5
:10193000031D9D2C0028A52CA32C3108433C031D1E
:10194000A32CA329A52CE30A762CA72C712C6D2C93
:02195000630032
:02400E00323F3F
:00000001FF
;PIC16F877A
;CRC=289B  CREATED="20-nov.-21 15:39"
