:100000000C308A00592C0000FF00030E8301A10070
:100010000A08A0008A010408A2007708A300780853
:10002000A4007908A5007A08A60003170D08031399
:10003000A70003170F080313A80003170C080313E6
:10004000A90003170E080313AA00831383128B1E43
:100050002B280B194C28220884002308F7002408B9
:10006000F8002508F9002608FA00270803178D0074
:100070000313280803178F000313290803178C00A4
:1000800003132A0803178E00031320088A00210E89
:100090008300FF0E7F0E09008A110A12DA280A1067
:1000A0008A100A11820737343834393441343434F1
:1000B00035343634423431343234333443344334D7
:1000C00030343D344434831630080319D428B80042
:1000D00034080319D428B807031875287F30B802EC
:1000E000031CD4280319D42879288130B8070318B1
:1000F000D4283808F700F801F901FA013108BC00EA
:10010000BC173208BB003308BA001830B800B90178
:100110003A1CA2283708FA07031C9428F90A031D81
:100120009428F80A0319B9173608F907031C9B2805
:10013000F80A0319B9173508B200B2173208F807E0
:100140000318B917B90DF80CF90CFA0CBC0CBB0C60
:10015000BA0C0310B80B87280130F7070318D4280E
:10016000F81BB928BC0DFA0DF90DF80DF7030319AA
:10017000D428BC1FCA28FA0A031DCA28F90A031D7D
:10018000CA28F80A031DCA28F80CF90CFA0CF70A59
:100190000319D4283108B9003508B906B91FD22887
:1001A000F817D828F813D828F701F801F901FA014F
:1001B000831208003C3081008316AA012A08073CFC
:1001C000031C4C2A2A08AB002B0DF700F70DF70D86
:1001D000F830F70583121F08C73977049F005230A3
:1001E000F700F70BF128F4280000031083162B0DFD
:1001F000323E8400831383121F151F19FD281E0829
:10020000FA0083161E088000840A7A0880002B0DED
:10021000F700F70DFC30F7057708423EF800FA01C9
:100220000318FA0A7808AC007A08AD0003102B0D09
:10023000323E84008313840A0008AF008403000860
:10024000AE002F08B1002E08B0008E30F700310844
:10025000F8003008F900FA01F808031D3929790877
:10026000F800F9010830F702F808031D3929F701F1
:1002700041290310F81B4029F90DF80DF70339291E
:10028000F8137A08B3007908B2007808B10077084B
:10029000B000B701B6012030B5008130B400831240
:1002A00063207A088316B1007908B0007808AF009F
:1002B0007708AE003108B5003008B4002F08B3004D
:1002C0002E08B200B901C030B8007F30B7008830C6
:1002D000B600320803192E2ABE00360803192E2A4A
:1002E000BE02031C78297F30BE0703182E2A7E2900
:1002F0008130BE02031C2E2A03192E2A3E08F70065
:10030000F801F901FA01BD013308BC00BC1734083B
:10031000BB003508BA001930BE003908BA0203180C
:10032000A1290130BB020318A129BC020318A1298D
:10033000BD020318A129BD0ABC0ABB0A3908BA07C5
:10034000D3293808BB020318BC290130BC020318AA
:10035000BC29BD020318BC29BD0ABC0A3808BB076A
:100360003908BA07031CD329BB0A031DD329BC0AC9
:10037000031DD329BD0AD32937088038BC020318CE
:10038000D2290130BD020318D229BD0A37088038AE
:10039000BC073808BB07031CB029BC0A031DB029E1
:1003A000BD0AB0297A14BE0BD629E1290310BA0D73
:1003B000BB0DBC0DBD0D0310FA0DF90DF80DBF0DF1
:1003C0008D293F1CE9290310F80CF90CFA0CBF0C1D
:1003D000EC29F70303192E2ABF1B152A0310BA0DA7
:1003E000BB0DBC0DBD0D3908BA020318012A01303E
:1003F000BB020318012ABC020318012ABD02031C18
:10040000242A3808BB0203180C2A0130BC02031846
:100410000C2ABD02031C242A37088038BC020318AA
:10042000152A0130BD02031C242AFA0A031D242ABE
:10043000F90A031D242AF80A031D242AF70A0319BE
:100440002E2AF80CF90CFA0C3308BE003708BE0649
:10045000BE1F2C2AF817322AF813322AF701F801A6
:10046000F901FA017A08B1007908B0007808AF0004
:100470007708AE002C08840083132D1883172E08EC
:100480008000840A2F088000840A30088000840AD3
:1004900031088000AA0ADE2883120B118A110A1281
:1004A0002B280C1020102021E9326E3B6537693271
:1004B0006F102005453669356110F33AA037F031E9
:1004C000E9376E1D20008C202E10CC326539202B90
:1004D0006F36F430EA320A212E10D6327210F6301E
:1004E000EC37F23273008C212E104937E637203278
:1004F000651075370A10F0346E10E539F032E334C8
:10050000E634E33700000C102010202B6F36F43057
:10051000EA32A01264002010201025173533202B5A
:1005200020000C2BB11E2533563E5619BD12662BEA
:100530000001D619BD12662B7C2BB41E2533560044
:100540000C2BB51E2533563E561BBD12662B0001E3
:10055000D61BBD12662B7C2BB81E253356008C246F
:10056000EE33F232F332A0326C10CE372E05E33088
:10057000EE306C10411000010C2BB11E25335600DB
:10058000E234F439BD124C3256000C2BB21E253326
:100590005600E234F439BD124C3256000C2BB31E17
:1005A00025335600E234F439BD124C3256000C2B80
:1005B000B41E25335600E234F439BD124C325600D5
:1005C0000C2BB51E25335600E234F439BD124C32E3
:1005D00056000C2BB61E25335600E234F439BD12FA
:1005E0004C3256000C2BB71E25335600E234F4393A
:1005F000BD124C3256000C2BB81E25335600E23487
:10060000F439BD124C3256008C24EE33F232F33200
:10061000A027F031E9376E103A007B308400831355
:1006200000080319202B0630F800F701F70B162BF2
:10063000F80B152B7B30F700F70B1C2B800B132BC3
:10064000080083162318282B831208122A2B8316DE
:100650008312081683160812A318322B83128812ED
:10066000342B8316831288168316881223193C2B89
:10067000831208133E2B8316831208178316081360
:10068000A319462B83128813482B831683128817CD
:100690008316881300008312881583168811023090
:1006A000F700F70B512B542B00008312881183168F
:1006B0008811831208008316A401081600308312E3
:1006C000081A01308316A404881600308312881A91
:1006D0000130F7000310F70D77088316A4040817FC
:1006E00000308312081B0130F700F70DF70DFC30C6
:1006F000F70577088316A404881700308312881B37
:100700000130F700F70DF70DF70DF830F705770812
:100710008316A4042408F8008312080083168811A5
:1007200088100811831288108316881008168816FE
:100730000817881783120815831608110000831202
:10074000881583168811000083125B2378088316AE
:10075000A300831288118316881100008312881564
:1007600083168811B32BB42B000083125B23780807
:100770008316A2008312881183168811081288122A
:1007800008138813230EF700F030F70577082204CA
:10079000F8007808A200A21B962BA008031DD42BFA
:1007A00083128810D62B8316831288148316881020
:1007B00000008312081183160811000083128811AB
:1007C00083168811210EA2000F30A2052208A30073
:1007D00083122123831621080F39A200A30083125C
:1007E000212308002830E5000C30E6000130E70046
:1007F0000630E8008811831688118312881083164A
:100800008810831208118316081108128812081321
:1008100088138811881008110F30FB0083120D23F4
:100820000130E4006408033C031C202C03308316D1
:10083000A300831221230530FB000D23E40A122CB0
:1008400002308316A300831221230530FB000D2301
:10085000E4016408033C031C3D2C653064078400FC
:1008600083130008E9008316A00183126908831628
:10087000A10083128E23E40A292C83168113C03031
:1008800083128B048B1683161F109F101F119F114C
:100890001F1383121F179F1783169F1783121F148E
:1008A00083160108C039073881003C30831281006B
:1008B0008A150A126C2C7C0B5E2C612C4030FD00DA
:1008C000622CFD0101307B02FD077D088038FE00AF
:1008D0008316A0017E08A10083128E2308007608EB
:1008E000073A03197D2C0B3A0319822C063A031997
:1008F0008C2C023A0319922C992C0130FB00FC003D
:100900005B24A02C8316A0010130A10083128E234A
:100910000230FB000D23A02C0130FB000230FC0054
:100920005B24A02C8316A0011030A10083128E231B
:10093000A02C01308316A0007608A10083128E231C
:1009400008000B08E6008B13831603178C170C1492
:100950000000000083120313E61B8B1703170C081B
:100960007F390319F52C0313E60003170D08031351
:10097000E70003170F080313E8006608F6006F246A
:10098000670803178D000313680803178F0003130C
:100990000B08E9008B13831603178C170C14000047
:1009A000000083120313E91B8B1703170C0D0E0DA8
:1009B0007F390319F52C0313E60003170D08031301
:1009C000E70003170F080313E8006608F6006F241A
:1009D000670803178D000313680803178F008D0A3B
:1009E00003198F0A0313A12C0317031308005130B6
:1009F00003178D0002308F000313A1240430E4009C
:100A0000AF30FB000D23E40B002D633003178D0086
:100A100002308F000313A1240430E400AF30FB0048
:100A20000D23E40B0E2D733003178D0002308F0061
:100A30000313A1240430E400AF30FB000D23E40BCA
:100A40001C2D8A150A126F2CE601AC0A2C08013CF9
:100A50000318842D2F08FC3E0318472D043E8B2DD0
:100A6000EF308316860083128600472DDF30831611
:100A7000860083128600472DBF30831686008312BE
:100A80008600472D7F3083168600831286002D1C3A
:100A9000532D06080F390F3C031D522D2D102E0823
:100AA000E600AE01832D06080F390F3C03197E2D99
:100AB00006080139031D5E2DE701722D0608023973
:100AC000031D652D0130E700722D06080439031D52
:100AD0006C2D0230E700722D06080839031D722DB7
:100AE0000330E700670DF700F70DFC30F7057708D6
:100AF0002F074F20F800AE002D14832DAF0A2F08CA
:100B0000043C0319AF01AC01FF3083168600831249
:100B10006608F80008000A148A100A158207302DAA
:100B2000362D3C2D422D0B08EA008B13831603173C
:100B30008C170C140000000083120313EA1B8B17A0
:100B40000318CA2D03170C087F390313EA00031793
:100B50000D080313EB0003170F080313EC006A08DA
:100B6000F6006F246B0803178D0003136C0803173E
:100B70008F0003130B08ED008B13831603178C17DC
:100B80000C140000000083120313ED1B8B17E90BFC
:100B9000CA2DE92D03170C0D0E0D7F390313EA0042
:100BA00003170D080313EB0003170F080313EC00E2
:100BB0006A08F6006F246B0803178D0003136C0896
:100BC00003178F008D0A03198F0A03100313E90B13
:100BD000932D08006D08F8016C020318F22D6C08C3
:100BE000F700FE2DF7010830EE00EC0DF70D6D0853
:100BF00077020318F700F80DEE0BF52D08008318A7
:100C0000042EA43084008313F701F801F901FA01DE
:100C10008316A401A501A601A7012308220421042B
:100C200020040319432E2030A8000310FB0DFC0DF7
:100C3000FD0DFE0DA40DA50DA60DA70D2308270281
:100C4000031D2C2E22082602031D2C2E210825020E
:100C5000031D2C2E20082402031C3D2E2008A40274
:100C60002108031C210FA5022208031C220FA60243
:100C70002308031C230FA7020314F70DF80DF90D29
:100C8000FA0DA80B152E24088000840A2508800080
:100C9000840A26088000840A27088000831208003E
:100CA0000408EE006D08F00003197D2EAB018B1BCC
:100CB000AB178B136C088316B30083126B08831673
:100CC000B20083126A088316B10083126908831682
:100CD000B000B701B6012030B5008230B4008312F5
:100CE0006320AB1B8B177A08EC007908EB007808BF
:100CF000EA007708E900F00B562E6C08FE006B083E
:100D0000FD006A08FC006908FB007B08B63CFB009C
:100D1000FA017C08F600FC170310FC0CFD0CFE0C1D
:100D2000FA0CF90CF80CF70CFB0B8C2EF61FA32E0B
:100D3000F709F809F909FA09F70A0319F80A031972
:100D4000F90A0319FA0A7A08EC007908EB00780826
:100D5000EA007708E900EC1FBA2EEE03EE16E90967
:100D6000EA09EB09EC09E90A0319EA0A0319EB0A93
:100D70000319EC0A3B30F5009A30F400CA30F30056
:100D8000F2010A30F0006D080319EE0A831469308D
:100D9000840083136C08FE006B08FD006A08FC00E9
:100DA0006908FB0075088316A3007408A200730885
:100DB000A1007208A0008312FF257808F708031D20
:100DC000F42E6D0A70020319F42E6E080319F62E24
:100DD0000F3970020319EE2E0318262FEE1B262F53
:100DE0006E1BF62E2030222F2030EE05EE1E042F33
:100DF000EE126D08031DEE037708EE002D30F600AD
:100E00006F246E08F700EE016D087002031D122FAB
:100E10007708EE002E30F6006F246E08F7002030C1
:100E2000EE0500303030EE1E222FEE126D08031D4D
:100E3000EE037708EE002D30F6006F246E08F70001
:100E4000EE013030F7077708F6006F24831075083D
:100E5000FE007408FD007308FC007208FB00831696
:100E6000A301A201A1010A30A0008312FF257A0884
:100E7000F5007908F4007808F3007708F200F00B29
:100E8000C62E0800E4016408073C031CF42F01305F
:100E9000FB00FC005B2401306407E500833003178E
:100EA0008D0002308F0003100D300313E9009325ED
:100EB0006508E6001830E7002030671E3030E80093
:100EC0006608F700E61F6C2FF709F70A7708E600B7
:100ED0002D30E800E71767146608EC006430ED0079
:100EE000EA257708E60030307807E9006608EC006C
:100EF0000A30ED00EA2530307707EB003030780714
:100F0000EA006808F7003030690203198B2FE714F4
:100F1000E71B67159F2F6808E9002030E800303094
:100F20006A020319972F6714E71BE7149F2F031D0D
:100F30006714031D9F2F6908EA002030E900671934
:100F4000A62FE718A92F6718AC2FAF2F6808F60057
:100F50006F246908F6006F246A08F6006F246B0896
:100F6000F6006F240130FB000230FC005B24640DAE
:100F7000F700F70DFC30F7057708423E8400831335
:100F80000008E500840A0008E600840A0008E7007B
:100F9000840A0008E8008B3003178D0002308F00B0
:100FA000031004300313E900932589308400680896
:100FB000EC006708EB006608EA006508E900053008
:100FC000ED0050262030F6006F245630F6006F24D6
:100FD0002030F6006F240830E500FA30FB000D23C6
:0E0FE000E50BED2FE40A432F8A150A12A52C0B
:101000000130FB00FC008A115B248A159130031724
:101010008D0002308F00031004300313E9008A11A1
:1010200093258A15893084004508EC004408EB00BC
:101030004308EA004208E9000230ED008A11502618
:101040008A15943003178D0002308F00031005308D
:101050000313E9008A1193258A1589308400490811
:10106000EC004808EB004708EA004608E9000230B7
:10107000ED008A1150268A155630F6008A116F2429
:101080008A150130FB000230FC008A115B248A15AE
:101090005630F6008A116F248A153330F6008A1113
:1010A0006F248A153D30F6008A116F248A15893025
:1010B00084004D08EC004C08EB004B08EA004A089D
:1010C000E9000230ED008A1150268A159B30031783
:1010D0008D0002308F00031405300313E9008A11DC
:1010E00093258A15893084005108EC005008EB00E4
:1010F0004F08EA004E08E9000230ED008A11502640
:101100008A155630F6008A116F248A150A30E400D9
:101110008230FB008A110D238A15E40B88280130E8
:10112000FB00FC008A115B248A15A03003178D0098
:1011300002308F00031004300313E9008A11932555
:101140008A15893084005508EC005408EB005308D8
:10115000EA005208E9000230ED008A1150268A1593
:10116000A33003178D0002308F00031005300313E6
:10117000E9008A1193258A15893084005908EC000A
:101180005808EB005708EA005608E9000230ED0065
:101190008A1150268A155630F6008A116F248A1556
:1011A0000130FB000230FC008A115B248A155630A6
:1011B000F6008A116F248A153730F6008A116F24E1
:1011C0008A153D30F6008A116F248A158930840013
:1011D0005D08EC005C08EB005B08EA005A08E900D7
:1011E0000230ED008A1150268A15AA3003178D00AF
:1011F00002308F00031405300313E9008A11932590
:101200008A15893084006108EC006008EB005F08F3
:10121000EA005E08E9000230ED008A1150268A15C6
:101220005630F6008A116F248A150A30E4008230A5
:10123000FB008A110D238A15E40B17298A150A125F
:10124000A52CEE010408ED006E10831B6E14E71F41
:101250003129ED176D1EED0AE609E709E60A0319C3
:10126000E70A670EF038E900E907E23EEA00323E9D
:10127000EC0067080F39EA07EA07EC07E93EEB00E4
:10128000EB07EB07660E0F39EB07EC07EB0DEC0DE8
:10129000EC09EC0D66080F39EC07E90D0730E800A2
:1012A0000A30EC07EB03031C5129EB07EA03031C8C
:1012B0005529EA07E903031C5929E907E803031C38
:1012C0005D2968308400831307306D056D13840336
:1012D0006D05031D72296D1A840A6D1A722920305A
:1012E000F7008F2984076C30040203196D1700087A
:1012F000F700031D83296D1B83296D1A9F29ED19A2
:10130000832920308E29ED1F8B292D30F70084038F
:101310006D13ED138F29ED156D123030F707E701CE
:101320000408E6006710831B67147708F6008A112B
:101330006F248A1566088400831367188317840A4C
:101340006D1F732908000130E400E4080319562CCE
:10135000AF3003178D0002308F008A110313A124D0
:101360008A158A1124258A157808E5001430FB00B7
:101370008A110D238A156508313A0319D529033AD4
:101380000319252A013A0319752A073A0319C52AB0
:10139000013A0319152B033A0319652B013A031976
:1013A000B52B0F3A0319052C552C0130FB00FC001E
:1013B0008A115B248A15BC3003178D0002308F0020
:1013C000031004300313E9008A1193258A1589302C
:1013D00084004508EC004408EB004308EA0042089A
:1013E000E9000230ED008A1150268A155630F600C9
:1013F0008A116F248A150130FB000230FC008A112B
:101400005B248A15C03003178D0002308F00031053
:1014100005300313E9008A1193258A1510308400E2
:101420003308E7003208E60021215630F6008A1121
:101430006F248A150830E600FA30FB008A110D236C
:101440008A15E60B1C2AE401552C0130FB00FC0038
:101450008A115B248A15C53003178D0002308F0076
:10146000031004300313E9008A1193258A1589308B
:1014700084004908EC004808EB004708EA004608E9
:10148000E9000230ED008A1150268A155630F60028
:101490008A116F248A150130FB000230FC008A118A
:1014A0005B248A15C93003178D0002308F000310AA
:1014B00005300313E9008A1193258A151030840042
:1014C0003508E7003408E60021215630F6008A117D
:1014D0006F248A150830E600FA30FB008A110D23CC
:1014E0008A15E60B6C2AE401552C0130FB00FC0048
:1014F0008A115B248A15CE3003178D0002308F00CD
:10150000031004300313E9008A1193258A158930EA
:1015100084004D08EC004C08EB004B08EA004A0838
:10152000E9000230ED008A1150268A155630F60087
:101530008A116F248A150130FB000230FC008A11E9
:101540005B248A15D23003178D0002308F00031000
:1015500005300313E9008A1193258A1510308400A1
:101560003708E7003608E60021215630F6008A11D8
:101570006F248A150830E600FA30FB008A110D232B
:101580008A15E60BBC2AE401552C0130FB00FC0057
:101590008A115B248A15D73003178D0002308F0023
:1015A000031004300313E9008A1193258A1589304A
:1015B00084005108EC005008EB004F08EA004E0888
:1015C000E9000230ED008A1150268A155630F600E7
:1015D0008A116F248A150130FB000230FC008A1149
:1015E0005B248A15DB3003178D0002308F00031057
:1015F00005300313E9008A1193258A151030840001
:101600003908E7003808E60021215630F6008A1133
:101610006F248A150830E600FA30FB008A110D238A
:101620008A15E60B0C2BE401552C0130FB00FC0065
:101630008A115B248A15E03003178D0002308F0079
:10164000031004300313E9008A1193258A158930A9
:1016500084005508EC005408EB005308EA005208D7
:10166000E9000230ED008A1150268A155630F60046
:101670008A116F248A150130FB000230FC008A11A8
:101680005B248A15E43003178D0002308F000310AD
:1016900005300313E9008A1193258A151030840060
:1016A0003B08E7003A08E60021215630F6008A118F
:1016B0006F248A150830E600FA30FB008A110D23EA
:1016C0008A15E60B5C2BE401552C0130FB00FC0075
:1016D0008A115B248A15E93003178D0002308F00D0
:1016E000031004300313E9008A1193258A15893009
:1016F00084005908EC005808EB005708EA00560827
:10170000E9000230ED008A1150268A155630F600A5
:101710008A116F248A150130FB000230FC008A1107
:101720005B248A15ED3003178D0002308F00031003
:1017300005300313E9008A1193258A1510308400BF
:101740003D08E7003C08E60021215630F6008A11EA
:101750006F248A150830E600FA30FB008A110D2349
:101760008A15E60BAC2BE401552C0130FB00FC0084
:101770008A115B248A15F23003178D0002308F0026
:10178000031004300313E9008A1193258A15893068
:1017900084005D08EC005C08EB005B08EA005A0876
:1017A000E9000230ED008A1150268A155630F60005
:1017B0008A116F248A150130FB000230FC008A1167
:1017C0005B248A15F63003178D0002308F0003105A
:1017D00005300313E9008A1193258A15103084001F
:1017E0003F08E7003E08E60021215630F6008A1146
:1017F0006F248A150830E600FA30FB008A110D23A9
:101800008A15E60BFC2BE401552C0130FB00FC0093
:101810008A115B248A15FB3003178D0002308F007C
:10182000031004300313E9008A1193258A158930C7
:1018300084006108EC006008EB005F08EA005E08C5
:10184000E9000230ED008A1150268A155630F60064
:101850008A116F248A150130FB000230FC008A11C6
:101860005B248A15FF3003178D0002308F000310B0
:1018700005300313E9008A1193258A15103084007E
:101880004108E7004008E60021215630F6008A11A1
:101890006F248A150830E600FA30FB008A110D2308
:1018A0008A15E60B4C2CE401552CA5298A150A1241
:1018B000A52C03081F398300B00183161F149F1441
:1018C0001F159F1107309C0083138312AC012D104C
:1018D000AE01AF018A11F22B8A158A11F72C8A15F5
:1018E000E2016208FF3A0319A72CE3016308633C95
:1018F000031CA52C043003178D0003308F008A11C0
:101900000313A1248A150A30FB008A110D238A15BE
:101910008A1124258A157808B1003108413C031D3D
:10192000962C8A11422F8A15A52CA32C3108423CF3
:10193000031D9D2C0028A52CA32C3108433C031D1E
:10194000A32CA329A52CE30A762CA72C712C6D2C93
:02195000630032
:02400E00323F3F
:00000001FF
;PIC16F877A
;CRC=647F  CREATED="20-nov.-21 18:10"
